:080000000C9434010C94000083
:100008000C9400000C9400000C9400000C94000068
:100018000C9451020C9452020C9439020C94640111
:100028000C9400000C9400000C9400000C94000048
:100038000C9400000C9400000C9400000C94000038
:100048000C9400000C9400000C9400006400C8009C
:1000580090012003F8FFFCFFFEFFFFFF02000700EE
:10006800E001E001E001E001E001E001E001E00180
:10007800E001E001E001E001E001E001E001000051
:100088000000000000002020256478002564002579
:10009800003C3220333E20347E00A5B7BC2E2025FC
:1000A80064002520003C2032202033203E00202000
:1000B80020F7202020200025642700FF00646576B3
:1000C8006963653D25750072656164696E670048FE
:1000D80065BF20BF65BCBEE361BFC0B8BA6FB300DF
:1000E800735F6C697420402020756B722E6E657486
:1000F80000A461B365E3B82020202020B261B9BA1A
:10010800004861B26570B82020313030306FB22FAE
:10011800BC0020202020203A2564202020002564CF
:10012800202020202020004156523A256400AAA908
:100138004FA420202020202020202042BABB00AA43
:10014800A94FA4202020202020202042C3BABB0091
:10015800A8706FB47065B32063B365C065B92E2EFF
:100168000020A16FBF6FB36F0043BD61C061BB6169
:100178002020B761B4BB79C1B800A9B4BBC320BE05
:100188006F2079BC6FBBC061BD2E0043B2706F6336
:10019800C420206FB26F706FBFC3002020202020C2
:1001A800CE3D2564002520200020202020B3C3BA9E
:1001B800BB2564002D4E414E000080C001002D4E2D
:1001C800414E00494E46000001007E0264000100D5
:1001D8008A0266001E008C02680002006001970017
:1001E80009006201990003006B01AA0009006E0171
:1001F800AD0009007701B60008008001CF001100AA
:100208008801D70011009901E8001000AA01F9003F
:100218001100BA0109011100CB0136011100DC01FE
:1002280047011100ED0158010800FE0169011100A4
:100238000602710111001702820111002802E8006C
:1002480010003902930104004902AD0108000600BC
:1002580086000200AA02C2010100B002C401000027
:10026800F894EE27ECBBF1E0FBBFEBBFE5BFF8E18C
:10027800F1BDE1BD8DE0A2E0BB27ED938A95E9F7DA
:1002880080E094E0A0E6ED930197E9F7E0EDF1E076
:1002980085919591009761F0A591B591059015907C
:1002A800BF01F00105900D920197E1F7FB01F0CF36
:1002B800EFE5EDBFE4E0EEBFC0E6D1E00C945604F4
:1002C8000A921A929A93AA93BA93EA93FA93EFB777
:1002D800EA93E5E0E2BFE0917C02F0917D02E093D1
:1002E8007A02F0937B02E0E0CE99E1E0F0E0E0935F
:1002F8007C02F0937D02A0917A02B0917B02EA170A
:10030800FB0701F5A0917C02B0917D02119781F461
:10031800A2E5B0E00E946D160F01E00DF11D8E16EA
:100328009F0624F4F40131964F0101C0939809C047
:1003380000240814090424F4F40131974F0101C082
:10034800939889C0082C092849F4939AA0E8B2E048
:10035800ED91FD913196FE93EE937DC0AAE4B0E055
:100368000E946D16E815F9054CF5AEE4B0E00E9460
:100378006D16E815F9058CF4A0E5B0E00E946D163D
:10038800E815F9051CF4E7E0F0E002C0E6E0F0E06B
:10039800E0938A02F0938B0210C0ACE4B0E00E94B4
:1003A8006D16E815F9051CF4E5E0F0E002C0E4E09C
:1003B800F0E0E0938A02F0938B022BC0A6E4B0E051
:1003C8000E946D16E815F9058CF4A8E4B0E00E94C7
:1003D8006D16E815F9051CF4E3E0F0E002C0E2E070
:1003E800F0E0E0938A02F0938B0213C0A4E4B0E03B
:1003F8000E946D16E815F9053CF4E1E0F0E0E093A1
:100408008A02F0938B0205C0E0E0E0938A02E09351
:100418008B026401A2E0B0E00E946D160E94A31551
:10042800EC5FFF4FDF01E0918A02F0918B02EE0F43
:10043800FF1FAE0FBF1F0E946D16D4010E94C41586
:10044800DF01E4E6F0E00E94EF15DF01F401EA1BAA
:10045800FB0B3F014301E991EFBFF991E991B99194
:10046800A9919991199009901895AA93BA93EA932A
:10047800FA93EFB7EA93E0EDF4E8FDBDECBDAEE723
:10048800B2E0ED91FD913196FE93EE93E991EFBFC5
:10049800F991E991B991A9911895189518950E9423
:1004A800D810E8E6F2E0FA93EA93EEE8F0E0FA937F
:1004B800EA93E0917802F09179020E94B2150E94C5
:1004C8005B1684E00E94600F2896E8E6F2E0FA9353
:1004D800EA930E940D11E8E6F2E0FA93EA93E4E960
:1004E800F0E0FA93EA93A2E0B0E00E946D160E9451
:1004F800A315EC5FFF4F0F01A0917802B09179022C
:10050800E7E0F0E0EA1BFB0BD001EE0FFF1FAE0F98
:10051800BF1F0E946D160E94B2150E945B1684E0F0
:100528000E94600F2896E8E6F2E0FA93EA930E94A8
:100538000D11E0E6F1E0FA93EA930E940D11E0E074
:10054800EA93E1E0EA930E94C910E2E6F1E0FA9347
:10055800EA930E940D110895E0E0EA93EA930E945D
:10056800C910E8E6F2E0FA93EA93E2EAF0E0FA93D7
:10057800EA93A2E0B0E00E946D160E94A315EC5F1A
:10058800FF4F0F01A0917802B0917902E7E0F0E007
:10059800EA1BFB0BD001EE0FFF1FAE0FBF1F0E941F
:1005A8006D160E94B2150E945B1684E00E94600FCF
:1005B8002896E8E6F2E0FA93EA930E940D11EBE63A
:1005C800F1E0FA93EA930E940D11E0E0EA93E1E08A
:1005D800EA930E94C910EEE6F1E0FA93EA930E94CA
:1005E8000D11E4E1F0E06AC0E7E7F1E0FA93EA937D
:1005F8000E940D11A0918202B0918302A93EE3E00E
:10060800BE0764F0E0E0F0E1EA1BFB0BAFEFBFEFE1
:100618000E94C415E0938202F0938302E8E6F2E0B8
:10062800FA93EA93EFEBF0E0FA93EA93E09182020F
:10063800F09183020E94B2150E945B1684E00E942A
:10064800600F2896E8E6F2E0FA93EA930E940D110B
:10065800A0918402B0918502A93EE3E0BE0764F050
:10066800E0E0F0E1EA1BFB0BAFEFBFEF0E94C4151F
:10067800E0938402F0938502E5E0EA93E1E0EA93EF
:100688000E94C910E8E6F2E0FA93EA93EFEBF0E093
:10069800FA93EA93E0918402F09185020E94B215E0
:1006A8000E945B1684E00E94600F2896E8E6F2E05C
:1006B800FA93EA930E940D11E8EEF3E0FA93EA93B5
:1006C8000E9405130895A4E4B0E0ECE3F0E00E9472
:1006D8007D16A6E4B0E0E5E4F0E00E947D16A8E40B
:1006E800B0E0E0E5F0E00E947D16AAE4B0E0E0E6C4
:1006F800F0E00E947D16ACE4B0E0E8E7F0E00E948C
:100708007D16AEE4B0E0E0EAF0E00E947D16A0E5D8
:10071800B0E0E0EFF0E00E947D16A2E5B0E0E0EE88
:10072800F1E00E947D16A4E0B0E0E2E6F0E00E946D
:100738007D16A4E1B0E0EEE3F0E00E947D16A4E2AD
:10074800B0E0EAE3F0E00E947D16A4E3B0E0E4E460
:10075800F0E00E947D16A6E0B0E0E2E6F0E00E943C
:100768007D16A6E1B0E0ECE3F0E00E947D16A6E27B
:10077800B0E0E9E3F0E00E947D16A6E3B0E0E4E42F
:10078800F0E00E947D16A8E0B0E0E2E6F0E00E940A
:100798007D16A8E1B0E0EBE3F0E00E947D16A8E248
:1007A800B0E0E6E3F0E00E947D16A8E3B0E0E1E403
:1007B800F0E00E947D16AAE0B0E0E2E6F0E00E94D8
:1007C8007D16AAE1B0E0E7E3F0E00E947D16AAE218
:1007D800B0E0E4E3F0E00E947D16AAE3B0E0E6E3CF
:1007E800F0E00E947D16ACE0B0E0E2E6F0E00E94A6
:1007F8007D16ACE1B0E0E2E3F0E00E947D16ACE2E9
:10080800B0E0E1E3F0E00E947D16ACE3B0E00E94C6
:100818007D16AEE0B0E0E2E6F0E00E947D16AEE1C3
:10082800B0E0E3E1F0E00E947D16AEE2B0E0E0E384
:10083800F0E00E947D16AEE3B0E00E947D16A0E1D4
:10084800B0E0E2E6F0E00E947D16A0E2B0E0E5E06C
:10085800F0E00E947D16A0E3B0E0E2E1F0E00E9443
:100868007D16A0E4B0E00E947D16A2E1B0E0E0E0D1
:10087800F0E00E947D16A2E2B0E00E947D16A2E39D
:10088800B0E00E947D16A2E4B0E00E947D16A2E0CE
:10089800B0E00E947D16A0E0B0E0E4E0F0E00E9445
:1008A8007D160895EFEFEBBBE0E0EABBE8BBEFEFA6
:1008B800E7BBE0E0E5BBEFEFE4BBE7EBE2BBE8EC6E
:1008C800E1BBE1E0E3BFE5E0E2BFE0E0ECBFEFBDA4
:1008D800E4E0EEBDE0E0EDBDECBDE7BDE6BDEBBD9F
:1008E800EABDE9BDE8BDE2BDE5BDE4BDE3BDE5BFE8
:1008F800E4BFEDE1E9BFE0E8E8B9E0E0E0BFE8E047
:10090800EA930E942B110E94D810E0E0E09388023D
:10091800E0938902A0918802B0918902189744F562
:10092800E0918802EA93E0E0EA930E94C910E3ECC0
:10093800F0E0FA93EA930E941A11E0918802EA9390
:10094800E1E0EA930E94C910E3ECF0E0FA93EA933D
:100958000E941A11E8E2F0E0FA93EA930E94051364
:10096800A8E8B2E0ED91FD913196FE93EE93D2CFD7
:100978000E94D810E0EFEA93E6E5F2E0FA93EA93F2
:100988000E9464135E2E552011F40C943605E0E0A5
:10099800EA93EA930E94C910E8E6F2E0FA93EA9330
:1009A800E5ECF0E0FA93EA93E52DFF276627772731
:1009B8000E945B1684E00E94600F2896E8E6F2E049
:1009C800FA93EA930E940D11E0E0EA93E1E0EA93DA
:1009D8000E94C910E0E8F1E0FA93EA930E940D1131
:1009E800ECE2F1E0FA93EA930E940513E6E5F2E0FF
:1009F800FA93EA93E2E3EA93ECE8EA93E0E0EA9315
:100A08000E944710EFE5F2E0FA93EA93E2E3EA93F3
:100A1800ECE8EA93E0E0EA930E9447100E94D810BD
:100A2800E6E5F2E0FA93EA930E94EC0FA2E8B2E05E
:100A38000E941F14ED93FC93EFE5F2E0FA93EA931A
:100A48000E94EC0FA4E8B2E00E941F14ED93FC93FF
:100A5800CBDDECEDF5E0FA93EA930E9405130E94D2
:100A6800D81011C0E0E0EA93EA930E94C910E8E8C0
:100A7800F1E0FA93EA930E940D11ECEDF5E0FA9398
:100A8800EA930E9405137894E0E0F0E0FDBDECBD28
:100A9800E0937E02E0937F02E9E9F1E0FA93EA93BA
:100AA8000E940D11E4EFF1E0FA93EA930E94051316
:100AB800C899A0C10E94D810ECEBF2E0FA93EA932F
:100AC8000E94051300DEE0E0E0938802E0938902CB
:100AD800A2E0B0E00E946D160F01A0E0B0E00E9415
:100AE8006D16E00DF11DA2E0B0E00E947D16A2E0B7
:100AF800B0E00E946D160F01A0E0B0E00E946D16F4
:100B0800DF01F001EA1BFB0BA0E0B0E00E947D16BC
:100B1800A2E0B0E00E946D160F01A0E0B0E00E94D4
:100B28006D16DF01F001EA1BFB0BA2E0B0E00E94AA
:100B38007D160E94D810EAEAF1E0FA93EA930E943F
:100B48000D11E8EBFBE0FA93EA930E940513E0E04D
:100B5800E0937E02E0937F02E0E2F3E0AE16BF0688
:100B6800D4F4A0917E02B0917F02119799F4E0E04D
:100B7800E0937E02E0937F02E0918002F09181028F
:100B8800ACE3B0E00E94C4155F01E0E0E0938002AE
:100B9800E0938102E1CF0E94D810EAEBF1E0FA93EA
:100BA800EA930E940D11E8EBFBE0FA93EA930E94A6
:100BB80005130E94D810E0E0E0937E02E0937F02E4
:100BC800E0938002E0938102A0918802B0918902AB
:100BD8001E9714F00C947606A0917E02B0917F02C5
:100BE800119711F00C947506E0E0E0937E02E09313
:100BF8007F02E0918002F0918102ACE3B0E00E94B4
:100C0800C4155F01E0E0E0938002E0938102ECEA22
:100C1800F3E0EA15FB052CF4E4E2F4E0AE16BF06B7
:100C28000CF014C0E0918802F0918902ACE8B2E0BF
:100C3800EE0FFF1FEA0FFB1FC082D182A8E8B2E0C7
:100C4800ED91FD913196FE93EE9305C0E0E0E093BF
:100C58008802E0938902E0E0EA93EA930E94C910CF
:100C6800E8E6F2E0FA93EA93EAE1F1E0FA93EA932C
:100C7800A0918802B0918902EFE0F0E0EA1BFB0B3B
:100C88000E94B2150E945B1684E00E94600F2896AD
:100C9800E8E6F2E0FA93EA930E940D11E0E0EA93A5
:100CA800E1E0EA930E94C910E8E6F2E0FA93EA93D9
:100CB800E6E2F1E0FA93EA93F5010E94B2150E9488
:100CC8005B1684E00E94600F2896E8E6F2E0FA934B
:100CD800EA930E940D11E4E6F0E0FA93EA930E9489
:100CE800051372CF0E94D810E0E0E0938802E093E9
:100CF8008902A0918802B09189021E97F4F4E091CC
:100D08008802F0918902ACE8B2E0EE0FFF1FAE0F47
:100D1800BF1F0E944316A0918602B0918702EA0F76
:100D2800FB1FE0938602F0938702A8E8B2E0ED91FA
:100D3800FD913196FE93EE93DCCFA0918602B0919F
:100D48008702EFE0F0E00E94EF15E0938602F0934F
:100D58008702E8E6F2E0FA93EA93EFE2F1E0FA9329
:100D6800EA93E0918602F09187020E94B2150E94F0
:100D78005B1684E00E94600F2896E8E6F2E0FA939A
:100D8800EA930E940D11E8EBFBE0FA93EA930E94C4
:100D98000513A2E0B0E00E946D160F01A0E0B0E0DC
:100DA8000E946D16E00DF11DA2E0B0E00E947D16D4
:100DB800A2E0B0E00E946D160F01A0E0B0E00E9432
:100DC8006D16DF01F001EA1BFB0BA0E0B0E00E940A
:100DD8007D16A2E0B0E00E946D160F01A0E0B0E021
:100DE8000E946D16DF01F001EA1BFB0BA2E0B0E0E8
:100DF8000E947D16C89975C0E2E3F0E0FA93EA9381
:100E08000E9405130E94D810C89955C0A0917E026F
:100E1800B0917F0215972CF0ECE4F4E0AE16BF0613
:100E28000CF048C0A2E0B0E00E946D160F01A0E0EF
:100E3800B0E00E946D16E00DF11DA2E0B0E00E9446
:100E48007D16A2E0B0E00E946D160F01A0E0B0E0B0
:100E58000E946D16DF01F001EA1BFB0BA0E0B0E079
:100E68000E947D16A2E0B0E00E946D160F01A0E07E
:100E7800B0E00E946D16DF01F001EA1BFB0BA2E057
:100E8800B0E00E947D16A2E0B0E00E946D16349793
:100E98001CF4EBECF1E002C0ECEDF1E0FA93EA931C
:100EA8000E940D11ECEBF2E0FA93EA930E9405130D
:100EB8000E94D810A9CFA0917E02B0917F0213970B
:100EC8002CF4E8E7F5E0AE16BF060CF001C08CDBA9
:100ED800E0E0E0938002E0938102E0937E02E093F9
:100EE8007F02C9995AC0E4E6F0E0FA93EA930E94B7
:100EF80005130A2C0B28D1F5F8940E94D810EDEEB2
:100F0800F1E0FA93EA930E940D11E0E0E093880281
:100F1800E0938902A0918802B0918902D297B4F433
:100F2800939AE9E1F0E0FA93EA930E940513939803
:100F3800E7E0F0E0FA93EA930E940513A8E8B2E02C
:100F4800ED91FD913196FE93EE93E4CF0E94D81077
:100F5800EEEFF1E0FA93EA930E940D11EAEFF0E068
:100F6800FA93EA930E94051378940EC00E94D81051
:100F7800E6E0F2E0FA93EA930E940D11ECE2F1E068
:100F8800FA93EA930E940513E0E0E0937E02E0936F
:100F98007F02E0938002E0938102CA993EC1E4E6B1
:100FA800F0E0FA93EA930E940513A0917E02B091B3
:100FB8007F02159714F00C940809E2E3F0E0FA9325
:100FC800EA930E940513C8990CC0E2E3F0E0FA9393
:100FD800EA930E940513E5E0F0E0E0937E02F093C7
:100FE8007F02CA9944C0E4E6F0E0FA93EA930E94CB
:100FF8000513E0E0E0937E02E0937F02A09178027F
:10100800B0917902179729F4E0937802E093790276
:1010180007C0A8E7B2E0ED91FD913196FE93EE93FB
:101028003EDACA9924C0A0917E02B0917F02169739
:101038002CF0ECE4F4E0AE16BF060CF017C043DB6E
:101048000E94D810E7E1F2E0FA93EA930E940D11AA
:10105800E4EFF1E0FA93EA930E940513E5E0F0E08B
:10106800E0937E02F0937F020E94D810DACFC999EC
:1010780020C0E4E6F0E0FA93EA930E940513E0E06A
:10108800E0937E02E0937F02E0917802F09179028A
:10109800309739F4E7E0F0E0E0937802F0937902D2
:1010A80007C0A8E7B2E0ED91FD913197FE93EE936A
:1010B800F6D9CB99A8C0E0E5F0E0FA93EA930E944C
:1010C8000513E0E0E0937E02E0937F0245DAE0E07A
:1010D800E0937E02E0937F02A0917E02B0917F02AE
:1010E800149714F00C940709E2E3F0E0FA93EA93FA
:1010F8000E940513A0E0CA99A1E0A030E1F4A2E0A3
:10110800B0E00E946D160E94A315EC5FFF4F0F011F
:10111800A0917802B0917902E7E0F0E0EA1BFB0BBE
:10112800D001EE0FFF1FAE0FBF1F0E946D16E436F1
:10113800A0E0FA070CF022C0E0E0E0937E02E09322
:101148007F02A2E0B0E00E946D160E94A315EC5F3A
:10115800FF4F0F01A0917802B0917902E7E0F0E02B
:10116800EA1BFB0BD001EE0FFF1FAE0FBF1F0E9443
:101178006D1631960E947D163197EED9A0E0C99977
:10118800A1E0A030E1F4A2E0B0E00E946D160E9458
:10119800A315EC5FFF4F0F01A0917802B09179027F
:1011A800E7E0F0E0EA1BFB0BD001EE0FFF1FAE0FEC
:1011B800BF1F0E946D16DF010E949A160CF022C014
:1011C800E0E0E0937E02E0937F02A2E0B0E00E94BC
:1011D8006D160E94A315EC5FFF4F0F01A0917802D6
:1011E800B0917902E7E0F0E0EA1BFB0BD001EE0FCB
:1011F800FF1FAE0FBF1F0E946D1631970E947D160C
:101208003196AAD969CFD1CEE0E0E0938002E0938D
:101218008102E0937E02E0937F02CB995CC0E4E612
:10122800F0E0FA93EA930E940513CB9917C0A091B6
:101238007E02B0917F02159784F00E94D810E8E2F0
:10124800F2E0FA93EA930E940D11E0EDF7E0FA93C9
:10125800EA930E9405130E94D810E7CFA0917E025E
:10126800B0917F02129774F5ECE4F4E0AE16BF0675
:10127800B4F4A2E0B0E00E946D1633974CF4A2E0FB
:10128800B0E00E946D1631960E947D16319706C017
:10129800A2E0B0E0E0E0F0E00E947D1613C0E0E0DC
:1012A800E0937E02E0937F020E94D810E9E3F2E027
:1012B800FA93EA930E940D11E0E9F1E0FA93EA93B8
:1012C8000E940513E0E0E0938002E0938102E0933E
:1012D8007E02E0937F02A0917E02B0917F02129776
:1012E80014F40C94B20AE0E0E0937E02E0937F02EB
:1012F800E0918002F0918102EE0FFF1FA091800221
:10130800B0918102EA0FFB1FEA0FFB1FEA0FFB1FD8
:10131800EA0FFB1FEA0FFB1FEA0FFB1FEA0FFB1F79
:10132800EA0FFB1FEA0FFB1FEA0FFB1FEA0FFB1F69
:10133800EA0FFB1FEA0FFB1FEA0FFB1FEA0FFB1F59
:10134800EA0FFB1FEA0FFB1FEA0FFB1FEA0FFB1F49
:10135800EA0FFB1FEA0FFB1FEA0FFB1FEA0FFB1F39
:10136800EA0FFB1FEA0FFB1FEA0FFB1FEA0FFB1F29
:10137800EA0FFB1F5F01E0E0E0938002E093810247
:10138800E6E5F2E0FA93EA930E94EC0FA6E8B2E0F1
:101398000E941F14ED93FC93A0918602B0918702DE
:1013A8000E949A1644F4E0918602F0918702E09335
:1013B8008202F0938302EFE5F2E0FA93EA930E9447
:1013C800EC0FA6E8B2E00E941F14ED93FC93A091E5
:1013D8008602B09187020E949A1644F4E091860230
:1013E800F0918702E0938402F0938502E0E0EA93AB
:1013F800EA930E94C910A0917802B09179020E94E4
:101408009A163CF4A8E7B2E0ED91FD913197FE936E
:10141800EE93A2E0B0E00E946D16349714F00C949D
:10142800990AE8E6F2E0FA93EA93E3EAF1E0FA933C
:10143800EA93A2E0B0E00E946D1631960E94B215C0
:101448000E945B1684E00E94600F2896E8E6F2E0AE
:10145800FA93EA930E940D11E8E6F2E0FA93EA9310
:10146800E6EAF0E0FA93EA93E0918A02F0918B02BF
:101478000E94B2150E945B1684E00E94600F2896B5
:10148800E8E6F2E0FA93EA930E940D11E0E0EA93AD
:10149800E1E0EA930E94C910E8E6F2E0FA93EA93E1
:1014A800E6E2F1E0FA93EA93F5010E94B2150E9490
:1014B8005B1684E00E94600F2896E8E6F2E0FA9353
:1014C800EA930E940D11E5E0EA93E1E0EA930E94B5
:1014D800C910E8E6F2E0FA93EA93E4E9F0E0FA9357
:1014E800EA93A2E0B0E00E946D160E94A315EC5F9B
:1014F800FF4FDF01E0918A02F0918B02EE0FFF1F90
:10150800AE0FBF1F0E946D160E94B2150E945B1697
:1015180084E00E94600F2896E8E6F2E0FA93EA93E6
:101528000E940D11E9E4F2E015C00E94D810E8E627
:10153800F2E0FA93EA93E1EBF1E0FA93EA93F5012A
:101548000E94B2150E945B1684E00E94600F2896E4
:10155800E8E6F2E0FA93EA930E940D114BCCFFCF34
:101568001A930A93AA81BB8112960E944316309758
:1015780059F1AA81BB8114960E9443168F013097B6
:1015880061F00230E0E01E07F0F0F80131978F01BA
:10159800AA81BB811496ED93FC93AA81BB81129614
:1015A800ED91FD913196FE93EE933197AC81A08336
:1015B800AA81BB810E944316FF232AF0ED91FD9179
:1015C8003196FE93EE9306C0AA81BB81EFEFFFEF41
:1015D800ED93FC9319810881A4C52497E0E0E88382
:1015E800E983E0E8EA83EFE3EB830E94A016EE8547
:1015F800FF85EF3FAFEFFA0759F4E885F985FA93CD
:10160800EA93ECEBF1E0FA93EA930E94701149C176
:10161800EF3FAFE7FA0759F4E885F985FA93EA93BB
:10162800EDEBF1E0FA93EA930E9470113AC1AB85B1
:10163800A73010F0E6E0EB871B85E12F1150E03072
:1016480079F0AC81BD818E819F81E0E0F0E060E2BD
:1016580071E40E94E014EC83FD836E837F83EDCFF9
:10166800EC85FD856E857F850E94961681F430E0B5
:10167800AC81BD818E819F81E0E0F0E060E271E4A1
:101688000E94E014EC83FD836E837F837EC03B85DC
:10169800EC81FD816E817F81AC85BD858E859F85BE
:1016A8000E94731509F010F40C94800BAC81BD8175
:1016B8008E819F81E0E0F0E060E271E40E94E01436
:1016C800EC83FD836E837F83EC81FD816E817F8156
:1016D800AC85BD858E859F850E94731560F0EDEC05
:1016E800FCEC6CEC7DE30E94E014EC87FD876E87D0
:1016F8007F873F5FE9CF25C0EC81FD816E817F81C7
:10170800AC85BD858E859F850E94731560F4E0E0E9
:10171800F0E060E271E40E94E014EC87FD876E87D8
:101728007F873150E9CFAC81BD818E819F81E0E018
:10173800F0E060E271E40E94E014EC83FD836E83C4
:101748007F83EC85FD856E857F85A0E0B0E080E035
:101758009FE30E949014EC87FD876E877F87EC815A
:10176800FD816E817F81AC85BD858E859F850E94B8
:10177800731558F0EDECFCEC6CEC7DE30E94E01482
:10178800EC87FD876E877F873F5F10E0EB85E11769
:1017980010F40C941F0CAC81BD818E819F81EDECFF
:1017A800FCEC6CEC7DE30E94E014A0E0B0E080E08B
:1017B8009FE30E9490140E945B160E94BF11EC8365
:1017C800FD836E837F83AC85BD858E859F850E9452
:1017D8002E150E941D140E2FA885B9851196A8876D
:1017E800B9871197E02FE05DEC93E02FFF2766277C
:1017F80077270E945614AC81BD818E819F810E94FB
:10180800E014AC85BD858E859F850E9460160E9478
:101818008914EC87FD876E877F87E12F1F5FE03093
:1018280009F0B4CFA885B9851196A887B98711970B
:10183800EEE2EC93ABCFE885F9853196E887F98736
:101848003197AA85A08330302CF43195A885B985C5
:10185800EDE203C0A885B985EBE2EC93E885F9854C
:101868003196E887F9873196E887F9873197BF017C
:10187800A32FEAE00E94D715E05DDB01EC93E88531
:10188800F9853196E887F9873197BF01A32FEAE0F8
:101898000E941916E05DDB01EC93A885B985E0E0AC
:1018A800EC930E94A71660960895EF9761970E949F
:1018B8009E1610E0FE01E85AFF4F0190F081E02DDE
:1018C800E887F987FE01EA5AFF4F0190F081E02D81
:1018D800EE83FF83AE81BF81E0E0F0E0ED93FC93FF
:1018E800DE01A45ABF4FED91FD913196FE93EE9320
:1018F8003197E4912E2FE03011F40C94570FE12F1B
:10190800E03069F4253211F411E008C02A93EF8120
:10191800F885FA93EA93EB85FC850995C3C2E13013
:10192800F1F4253249F42A93EF81F885FA93EA9382
:10193800EB85FC850995B5C212E0E0E0ED8B00E08F
:101948002D3211F401E0AEC22B3219F4EBE2ED8B2B
:10195800A9C2203219F4E0E2ED8BA4C202C0E23041
:1019680039F450E013E0203311F400689BC202C040
:10197800E33091F4203310F02A3308F007C0AAE0CE
:101988005A9F502DE22FE0535E0F8CC240E02E325A
:1019980011F414E087C20FC0E43099F4203310F03A
:1019A8002A3308F008C00062AAE04A9F402DE22FBF
:1019B800E0534E0F77C22C3619F4026015E072C25C
:1019C80004C0E53011F00C94560FE22FE336B1F461
:1019D800FE01E65AFF4F0190F081E02D3497DE01B9
:1019E800A65ABF4FED93FC93A481AA93EF81F88583
:1019F800FA93EA93EB85FC85099553C2E53411F017
:101A0800E53609F404C0E63611F00C94770DFE01B2
:101A18007696EE87FF87DE01A65ABF4F0D90BC91E0
:101A2800A02D0E944716EA87FB876C877D87FE01F9
:101A3800E65AFF4F0190F081E02D3497DE01A65A57
:101A4800BF4FED93FC93AD85AA2322F0AD89AB324D
:101A580069F020C0EA85FB856C857D850E94EA13C4
:101A6800EA87FB876C877D87EDE2ED8B07FF0AC06D
:101A7800ED89EA93EF81F885FA93EA93EB85FC8583
:101A8800099508C0EE85FF853196EE87FF87319767
:101A9800AD89A08305FF46E0263671F4EA85FB850B
:101AA8006C857D850E945B164A93EB89FC89FA93C5
:101AB800EA930E94D6110DC0EA85FB856C857D8569
:101AC8000E945B164A932A93EC89FD89FA93EA935C
:101AD80084DDFE017696EE87FF87FA93EA930E94EB
:101AE8007B111E2F45C0E337E9F4FE01E65AFF4F8C
:101AF8000190F081E02D3497DE01A65ABF4FED9397
:101B0800FC93DE01A65ABF4F0D90BC91A02D1496F0
:101B18000E944316EE87FF87FA93EA930E947B118F
:101B28001E2F1FC0E03749F5FE01E65AFF4F01900E
:101B3800F081E02D3497DE01A65ABF4FED93FC9358
:101B4800DE01A65ABF4F0D90BC91A02D14960E949D
:101B58004316EE87FF87FA93EA930E9485111E2F9A
:101B680008600F77403011F0411708F001C0142FBA
:101B780040E0E0E0EC8B30E0AAC0E43611F0E93652
:101B880011F4046002C0E537C1F4EAE0EC8B01FF10
:101B98000AC0E0E0FAEC6AE97BE3E88BF98B6A8B30
:101BA8007B8B1AE029C0E0E1F7E260E070E0E88BA7
:101BB800F98B6A8B7B8B15E01FC0E83511F4086040
:101BC80004C0E83711F00C94550FE0E1EC8B01FFED
:101BD8000AC0E0E0F0E060E070E1E88BF98B6A8B26
:101BE8007B8B18E009C0E0E0F0E160E070E0E88B92
:101BF800F98B6A8B7B8B14E0403011F00F7701C0B2
:101C080041E001FF16C0FE01E65AFF4F0190F08146
:101C1800E02D3497DE01A65ABF4FED93FC93DE0109
:101C2800A65ABF4F0D90BC91A02D14960E9447163E
:101C380031C002FF18C0FE01E65AFF4F0190F08143
:101C4800E02D3497DE01A65ABF4FED93FC93DE01D9
:101C5800A65ABF4F0D90BC91A02D14960E94431612
:101C68000E94B21517C0FE01E65AFF4F0190F0819D
:101C7800E02D3497DE01A65ABF4FED93FC93DE01A9
:101C8800A65ABF4F0D90BC91A02D14960E944316E2
:101C980066277727EA87FB876C877D8702FF16C050
:101CA800AD85AA2362F4EA85FB856C857D850E9453
:101CB8009B15EA87FB876C877D87EDE2ED8BED89C5
:101CC800E03019F01F5F4F5F01C00B7F342F00FD1C
:101CD8001AC0151710F4351708F015C007FF08C00B
:101CE80002FF04C00B7F2D89115001C020E301C001
:101CF80020E22A93EF81F885FA93EA93EB85FC8535
:101D080009955150E6CF141740F5006102FF17C03E
:101D18000B7FED89EA93FE01E95AFF4F0190F081AC
:101D2800E02DFA93EA93FE01E55AFF4F0190F08106
:101D3800E02D0995503009F0515011504150E0E321
:101D4800EA93EF81F885FA93EA93EB85FC85099588
:101D5800503009F051504150D6CF312FEC89E03046
:101D6800E9F43030D1F003FF06C0EE85FF852591F8
:101D7800EE87FF8705C0AE85BF852D91AE87BF87EB
:101D88002A93EF81F885FA93EA93EB85FC85099508
:101D9800503009F051503150E4CF74C0E889F989C6
:101DA8006A897B89AA85BB858C859D850E94F415E7
:101DB8002E2F2A3030F003FF02C0295C01C0295AB7
:101DC80001C0205D04FD32C0213360F4A889B989BF
:101DD8008A899B89A130E0E0BE07E0E08E07E0E059
:101DE8009E0709F40BC0431740F4531710F000FF87
:101DF80001C027C020E207FF19C020E3006102FFED
:101E080015C00B7FED89EA93FE01E95AFF4F019057
:101E1800F081E02DFA93EA93FE01E55AFF4F019015
:101E2800F081E02D0995503009F051502A93EF8147
:101E3800F885FA93EA93EB85FC850995503009F00B
:101E480051503150E889F9896A897B89AA85BB850F
:101E58008C859D850E942516EA87FB876C877D8780
:101E6800EC89A889B9898A899B89FF2766277727FA
:101E78000E94F415E88BF98B6A8B7B8B0E9496166F
:101E880009F08CCF00FF0DC0503059F05150E0E2FE
:101E9800EA93EF81F885FA93EA93EB85FC85099537
:101EA800F3CF10E01DCDAE81BF810E9443160E9482
:101EB800A516EF966F960895FF92F82E26970E9422
:101EC800A016DE011C960E9493150E9443163097B7
:101ED80019F4EFEFFFEF29C0DE0116960E94931563
:101EE8008D01DE011C960E9493150E944316EE8315
:101EF800FF83E0E0E887E987DE011A960E949315E0
:101F08000E944316FA93EA931A930A93E4EBFAE0D1
:101F1800FA93EA93FE013A96FA93EA93C6DC9F0194
:101F2800AE81BF81E0E0EC93F9010E94A7162A96E2
:101F3800FF9008951A930E941113E03011F4E0E025
:101F480083C1E981FA81309789F0E5E5EA930E9437
:101F58005A1310E0A981BA81ED91A983BA83EA9353
:101F68000E945A131F5F1830A8F304C0ECECEA93E0
:101F78000E945A13E1E068C10E94A016EC81FD811D
:101F8800FA93EA93D7DFE03011F4E0E01DC0EEEBFE
:101F9800EA930E945A1310E02DE432E03F932F9306
:101FA8002F5F3F4F0E945513AF91BF91EC931F5F76
:101FB8001930A0F3EDE4F2E0FA93EA93E9E0EA934A
:101FC8000E94D4130E94B7150E94A716269608955A
:101FD8001A93E981FA81FA93EA93CEDFE03029F483
:101FE800E0E0FCE36CE176EC2FC1E0915102E29570
:101FF800EF70E695E3701E2FE981FA81FA93EA9370
:1020080099DFE03029F4E0E0FCE36CE176EC1CC1F8
:10201800E4E4EA930E945A13E12FA4E5B0E0F0E06B
:10202800EE0FFF1FEA0FFB1F0E944D16FA93EA936B
:102038000E940513E981FA81FA93EA939DDFE03063
:1020480029F4E0E0FCE36CE176ECFEC00E94111399
:10205800E12FACE5B0E0F0E0EE0FFF1FEA0FFB1F49
:102068000E944D16A0914D02B0914E02EA23FB2327
:102078000E94B2150E945614A0E0B0E080E89DE3EB
:102088000E94E014E1C0EB81FC81FA93EA9352DFED
:10209800E03011F4E0E045C0E881E295E07FEE0F22
:1020A800EF61E883EEE4EA930E945A13E981EA9328
:1020B8000E945A13EA81EA930E945A13E881EA932C
:1020C8000E945A13EB81FC81FA93EA9355DFE030C2
:1020D80011F4E0E026C0A0915002EA81EA1751F419
:1020E800A0914F02E981EA1729F4A0915102E881F1
:1020F800EA1711F0E0E015C0EB81FC81FA93EA934E
:1021080019DFE03011F4E0E00CC0E8E4EA930E9443
:102118005A13EFE0F0E0FA93EA930E9405130E9445
:10212800111325960895E881E07111F0C39A01C052
:10213800C398E881E07211F0C49A01C0C498E8819C
:10214800E07411F0C59A01C0C598E881E07811F0F3
:10215800C69A01C0C6988BE08A95F1F7C29A8BE1BE
:102168008A95F1F7C2988BE18A95F1F7B3C0E881B7
:10217800EA93D9DFE881E295E883E881EA93D3DF3F
:1021880088EC90E00197F1F7A5C0E881F0E0E6550A
:10219800FD4FE081A981EA0FEA93E9DF4980E881F0
:1021A800E093AE0222960895E2E0EA93E0DFE3E0EE
:1021B800F0E0FA93EA930E940513ECE0EA93D7DF84
:1021C800E1E0EA93D4DFE3E0F0E0FA93EA930E94D7
:1021D8000513E0E0E093AE024E2E0895A881AA30E0
:1021E80021F0E091AF024E1668F0E0E0EA93E0914A
:1021F800AE02EF5FE093AE02EA93C7DFA881AA3090
:1022080009F468C04394C09AE881EA93B0DFC098A3
:1022180061C01A93A981BA81ED91A983BA831E2F4F
:10222800E03019F01A93DADFF5CF0EC01A93E9817E
:10223800FA813196E983FA833197E4911E2FE030D1
:1022480019F01A93CBDFF3CF188123960895BB9A20
:10225800BC9ABD9ABE9ABA9AB89AB99AC298C098C6
:10226800C198E881E093AF02E058E093AC02E881BE
:10227800E054E093AD02E4E1F0E0FA93EA930E94BF
:102288000513E0E3EA934FDF80E991E00197F1F766
:10229800E0E3EA9348DF80E991E00197F1F7E0E3B2
:1022A800EA9341DF80E991E00197F1F7E0E2EA93F0
:1022B8003ADF80E991E00197F1F7E8E2EA9357DF26
:1022C800E4E0EA9354DFE5E8EA9351DFE6E0EA93D5
:1022D8004EDF6ADF21960895E991F991A991B991A4
:1022E800CD0105900D920020E1F7FC010895A99118
:1022F800B991EE27FF276D91662311F03196FBCF38
:102308000895AA27BB27E991F9910590002011F0BB
:102318001196FBCFFD0108957B816A81F981E881DF
:1023280077FB770F67FD7160972F9E5781F078F0E4
:10233800983190F4AA27BB27882708948795B795E2
:10234800A7959A95D1F7EA23FB23682305C0E8945B
:102358007727EE27FF2766276F77769508F460685A
:1023680077F9A991B99189919991EA17FB076807BB
:10237800790797FB08950E9451160E945B160E94E8
:1023880090110E94561619F40E94511609C0E6F7DA
:102398000E945116A0E0B0E080E89FE30E948914F3
:1023A800249608952497E0E0E883E983EA83EFE33D
:1023B800EB831A930A93EB85FC85EF3FAFEFFA079F
:1023C80059F4EE81FF81FA93EA93E6ECF1E0FA938F
:1023D800EA930E94701111C1EF3FAFE7FA0759F471
:1023E800EE81FF81FA93EA93E7ECF1E0FA93EA933E
:1023F8000E94701102C1AC85AA2392F4E985FA857E
:102408006B857C850E94EA13E987FA876B877C874E
:10241800AE81BF811196AE83BF831197EDE2EC9335
:10242800A885A73010F0E6E0E8871885E12F11505D
:10243800E03079F0AA81BB818C819D81EDECFCECC8
:102448006CEC7DE30E94E014EA83FB836C837D835C
:10245800EDCFEA81FB816C817D81A985BA858B8569
:102468009C850E949014E987FA876B877C8710E027
:10247800E0E0F0E060E87FE3EA83FB836C837D8340
:10248800EA81FB816C817D81A985BA858B859C85D4
:102498000E947315E8F0AA81BB818C819D81E0E0E0
:1024A800F0E060E271E40E94E014EA83FB836C834D
:1024B8007D831F5F173258F0EE81FF81FA93EA930C
:1024C800EBECF1E0FA93EA930E94701196C0D8CF32
:1024D800103049F4AE81BF811196AE83BF83119746
:1024E800E0E3EC9349C0E12F1150E03011F40C9473
:1024F800C012AA81BB818C819D81EDECFCEC6CEC57
:102508007DE30E94E014A0E0B0E080E09FE30E9439
:1025180090140E945B160E94BF11EA83FB836C83B0
:102528007D83A985BA858B859C850E942E150E947E
:102538001D140E2FAE81BF811196AE83BF831197F4
:10254800E02FE05DEC93E02FAA81BB818C819D8117
:10255800FF27662777270E9456140E94E014A98552
:10256800BA858B859C850E9460160E948914E9872C
:10257800FA876B877C87B7CFE885E030D1F1AE81E9
:10258800BF811196AE83BF831197EEE2EC93E88585
:10259800E150E887EF5F69F1A985BA858B859C854D
:1025A800E0E0F0E060E271E40E94E014E987FA8775
:1025B8006B877C870E941D140E2FAE81BF811196F8
:1025C800AE83BF831197E02FE05DEC93E02FA985E0
:1025D800BA858B859C85FF27662777270E94561426
:1025E8000E9460160E948914E987FA876B877C87A6
:1025F800CECFAE81BF81E0E0EC93198108812D96A2
:102608000895E991F991309639F080EA9FE00197B1
:10261800F1F7A8953197C9F70895EE27DD98D59A6F
:1026280080E897E00197F1F7D5988BE48A95F1F760
:10263800CD9B089580E391E00197F1F7CD9BE1E010
:1026480088E196E00197F1F70895D59A8BE08A958D
:10265800F1F7D5988BE38A95F1F78894CD9908948A
:10266800E79580E491E00197F1F70895E894D59A09
:102678008BE08A95F1F770FDD59885E48A95F1F796
:10268800CD9903C070FF03C0089570FF08958CE2D0
:1026980091E00197F1F7D5988BE18A95F1F7689465
:1026A800089568E0D2DF6A95E9F7089568E07991BE
:1026B800EE27DCDF26F477956A95D9F7E395089538
:1026C8004F935F9311244427A881B981012C1124C9
:1026D800A4DFEE23F9F0EA81EA93E8DF51E0501530
:1026E80098F4B3DFE7FD08C0B0DFE7FD06C03FD0D0
:1026F800892319F4152E01C0A8DF39D0892370E089
:1027080009F071E0B3DF1EC0A0DFE7FF0BC09DDF5B
:10271800E7FF05C0E42F5F914F91239608956894D1
:1027280037D0EFCF92DFE7FF01C003C0501531F07B
:10273800152EE8942DD0772799DF04C0689428D007
:1027480071E094DF5395513454F27FDFEE1FEE1F92
:10275800E1701896EC93189743951120D9F259E037
:10276800EC911996EC9318975A95D1F7AFCFE52FBE
:10277800EA956E2FE695E695E695FF27EA0FFB1F8B
:10278800808191E0677019F0990F6A95FCCF0895E0
:10279800EEDF1EF09095892301C0892B8083089570
:1027A800EE278881882381F068E1A981BA8198E0C1
:1027B800FD917F2F7E27779508F4E627E795F69514
:1027C8009A95B9F78A9599F72396089530976040B6
:1027D800704009F070580895552342F4503811F4A8
:1027E800E0FF04C03196691F791F6BF050E8572746
:1027F80011F45F93CFC05F3F31F0660F000C57951F
:102808006795752F08955F9300200AF0CFC0C8C060
:1028180050E8192E1522880F991F9527550F87956F
:1028280050E8072E0522660F771F7527550F679505
:102838000895689401C0E8945F93F2DF703818F047
:102848007F3F08F4A7C056E1571BAAF451955830AA
:102858000EF4593030F0EFEFFFEF6FEF7FE777F9C5
:102868001AC077275523B9F0EE0FFF1F661F771F91
:102878005A95D1F710C07727583028F0EF2FF62F48
:10288800672F5850F9CF552331F076956795F7950E
:10289800E7955A95D1F700200AF449D15F91089538
:1028A800689401C0E894309760407040B1F000240B
:1028B80026F0772312F400943AD1172E7EE11120E6
:1028C80032F07A95EE0FFF1F661F111CF9CFEF2F1C
:1028D800F62F612D5F938ADF5F9108954F93AF01C3
:1028E800FD01DA01AB01BC01CA01402D012C142EF7
:1028F8004F910895EA0FFB1F681F0895E095F09522
:102908006095EF5FFF4F6F4F08955F9381DF9038B9
:1029180071F150E8152604C05F937ADF903839F1D9
:10292800703821F1572F591B2BF112F4D7DFFACF4A
:10293800583118F0AA27BB278827583028F0AB2F22
:10294800B82F88275850F9CF552329F08695B79581
:10295800A7955A95D9F7502D512572F0CBDF38F449
:102968006795F795E795739513F420C0B7DF3EDFB9
:102978005F910895D8F7FBCFEA1BFB0B680B51F06A
:1029880010F40094BBDF662392F3EE0FFF1F661F5F
:102998007A95CBF7EE27FF27662777275F9108956B
:1029A800EFEFFFEF6FE77FEF5F910895EFEFFFEF36
:1029B8006FE77FE75F9108955F932ADF703851F3DF
:1029C800903841F301240894791F23F41CF3002064
:1029D8003AF3ECCF0F921F932F933F934F93112706
:1029E80022279927689FA0018F9F302D410D591FDD
:1029F8006B9F300D411D591F8E9F27D0BF9F25D03B
:102A08006A9F23D0BE9F1DD0AF9F1BD0AE9F110DD4
:102A1800291F391F491F591FE32FF42F652F522FE4
:102A28004F913F912F911F910F9066232AF0550FD8
:102A3800EE1FFF1F661F02C073954BF2CDDE5F913C
:102A48000895100D211D391F02C0200D311D491F89
:102A5800591F08955F93DCDE703821F411200AF4C1
:102A68009FCFA4CF903809F495CF01240894970BF1
:102A78001BF4D4F30020F3CF792F1F932F933F93A8
:102A88004F9311241127222733274427552790E2F3
:102A9800AE17BF078607410730F0AE1BBF0B860B8A
:102AA800410B089401C08894551F221F331F111C25
:102AB800AA1FBB1F881F441F9A9551F7F901612D62
:102AC8004F913F912F911F91662332F0550FEE1FC2
:102AD800FF1F661F7A9543F27FDE5F910895992361
:102AE8009AF0772342F0971748F029F4AE17BF07FA
:102AF800860720F031F09894889408959894089463
:102B080008951894889408957723C2F7971798F32F
:102B1800A9F7EA17FB07680788F399F3ECCF0024B5
:102B2800AF0DB01D0895F195E195F0400895F09529
:102B380060957095E195FF4F6F4F7F4F0895EE0FA9
:102B4800FF1FEE0FFF1FEE0FFF1FEE0FFF1F089571
:102B5800FE2FFF0FFF0B6F2F7F2F08956F2F660F2C
:102B6800660B762F0895EE23E1E009F0EE2708952D
:102B7800FA9FF02DEB9FF00DEA9FE02DF10D0895DF
:102B880070D0F6DF0EF4CFDF0895002498E0AA0F86
:102B9800001C0E1A10F40E0E01C0A1609A95B9F728
:102BA800EA2FA02D089551D0F0DF0EF4E195089595
:102BB8000024112490E1AA0FBB1F001C111C0E1A3F
:102BC8001F0A18F40E0E1F1E01C0A1609A9599F7EE
:102BD800FD01D001089545D0EBDF0EF4A4DF089580
:102BE8003F934F935F93002411244427552730E2E5
:102BF800AA0FBB1F881F991F001C111C441F551FBB
:102C08000E1A1F0A460B570B28F40E0E1F1E461FDE
:102C1800571F01C0A1603A9559F7FD01BC01D001C9
:102C2800CA015F914F913F910895E894A7FF02C0B0
:102C3800A1956894E7FDE195A8DFEA2F0EF4E195E8
:102C48000895CEDFFD01BC010895E894E7FF02C0B6
:102C5800E1956894A7FF04C0A19500F8039400FAD1
:102C68000895E894F7FF02C05EDF6894B7FF06C0D6
:102C7800A095B095119600F8039400FA0895ED9187
:102C8800FC9111970895ED91FD916D917C911397A9
:102C980008950590F491E02D0895E881F9816A81FD
:102CA8007B810895E883F9836A837B8308957A9307
:102CB8006A93FA93EA930895182E862F612D192E98
:102CC800972F712D1B2EBF2FF12D1A2EAE2FE12D10
:102CD8000895119602D0FE2F1197E199FECFFF9328
:102CE800FFB7F894AEBBBFBBE09AEDB3FFBFFF914F
:102CF800089507D01196EF93EF2F03D0EF91119716
:102D08000895E19B02C0A895FCCF9FB7F894AEBB8D
:102D1800BFBBE09A8DB3E81719F0EDBBE29AE19AD0
:102D28009FBF0895309760407040089500240A16A8
:102D38000B0608955A934A933A932A931A930A933F
:102D480008955D814C813B812A811981088108950C
:00000001FF
